:020000040000FA
:02000000F72BDC
:1002D800003095210800033095210800A7006C2103
:1002E8002608A1002508A000E42127089521080078
:1002F80083169B013F308312A000200883169C05BB
:100308001C141A080800A501851993290A30A000B1
:100318000030A100E42185199329A501A50A250823
:1003280008008312A000201C9C29831285149E2992
:1003380083128510A01CA3298312051408008312B8
:1003480005100800A700A801B129270828020318EA
:10035800B5290130A6002608A8078721003A031D01
:10036800A92928080800A500251CBD29831285167F
:10037800BF2983128512A51CC42983120516C62914
:10038800831205121430A0000030A100E4210800F7
:1003980005118316051132308312A5000030A6001E
:1003A80003307221C830A0000030A100E421831678
:1003B8000515FA308312A0000030A100E4210800DE
:1003C800A301A40121082402031DEC29200823020B
:1003D80003180800C730A200F129A20BF029F4295C
:1003E800F52901308312A3070318A40A0030A407D3
:1003F800E629A10083169C18FE299B018312210877
:1004080083169A003F308312A000200883169C05AB
:1004180003108B1B03148B131C1555309D00AA3039
:100428009D009C141C11031C08008B1708008312E4
:10043800A801A901F4308312A5000130A6002E08F6
:100448007221F430A0000130A100E4210130A80796
:100458000318A90A0030A9072908803ADF0080306C
:100468005F02031D392A05302802031808001E2AD6
:100478008316810195141515951607308312990076
:100488000C3083168500831205158515851405140F
:100498003230A0000030A100E4217C218312AA00A0
:1004A8002A08AE002E08B721CC210C3083169600FE
:1004B8008B158B131B226F21FA30A0000030A1008E
:1004C800E42108003C22ED2BC830A621C83A031DC0
:1004D8007A2A6430A5000030A600013072218721F5
:1004E800003A031D732AB001B00AED2B6300A62A57
:1004F8007C218312AB002B08AE002E089521AF019A
:10050800AF0AC830A621AB002B08AC00A82A64307B
:10051800A5000030A600013072210230AB002B0884
:10052800AF00ED2B8721003A031D962A0130AB005E
:100538002B08AE0704302E060319AE012E089521AC
:10054800ED2B63000B10ED2B2C08013A0319962AAA
:10055800033A0319962A013A0319962A073A031906
:10056800962A013A0319962A033A0319962A013A58
:100578000319962A0F3A0319962A013A0319962A5B
:10058800033A0319962A013A0319962A073A0319D6
:10059800962A013A0319962A033A0319962A013A28
:1005A8000319962A1F3A0319962A013A0319962A1B
:1005B800033A0319962A013A0319962A073A0319A6
:1005C800962A013A0319962A033A0319962A013AF8
:1005D8000319962A0F3A0319962A013A0319962AFB
:1005E800033A0319962A013A0319962A073A031976
:1005F800962A013A0319962A033A0319962A013AC8
:100608000319962A3F3A0319962A013A0319962A9A
:10061800033A0319962A013A0319962A073A031945
:10062800962A013A0319962A033A0319962A013A97
:100638000319962A0F3A0319962A013A0319962A9A
:10064800033A0319962A013A0319962A073A031915
:10065800962A013A0319962A033A0319962A013A67
:100668000319962A1F3A0319962A013A0319962A5A
:10067800033A0319962A013A0319962A073A0319E5
:10068800962A013A0319962A033A0319962A013A37
:100698000319962A0F3A0319962A013A0319962A3A
:1006A800033A0319962A013A0319962A073A0319B5
:1006B800962A013A0319962A033A0319962A013A07
:1006C8000319962A7F3A0319962A013A0319962A9A
:1006D800033A0319962A013A0319962A073A031985
:1006E800962A013A0319962A033A0319962A013AD7
:1006F8000319962A0F3A0319962A013A0319962ADA
:10070800033A0319962A013A0319962A073A031954
:10071800962A013A0319962A033A0319962A013AA6
:100728000319962A1F3A0319962A013A0319962A99
:10073800033A0319962A013A0319962A073A031924
:10074800962A013A0319962A033A0319962A013A76
:100758000319962A0F3A0319962A013A0319962A79
:10076800033A0319962A013A0319962A073A0319F4
:10077800962A013A0319962A033A0319962A013A46
:100788000319962A3F3A0319962A013A0319962A19
:10079800033A0319962A013A0319962A073A0319C4
:1007A800962AAC3A03198B2AA52AB001AF012E0864
:1007B800FD2183122E08B721CC21ED2B2F08003AFA
:1007C80003197C2A013A0319852A033A0319D92BFC
:1007D800ED2B83123008003A0319682A013A0319ED
:1007E800E22BED2B00288312AC01AD01AE01AF0165
:0607F800B0018301662A36
:02400E009431EB
:00000001FF
